:020000040800F2
:100000002007002035020008F32F0008C92B000844
:10001000F12F0008751B00089F3200080000000047
:10002000000000000000000000000000F72F0008A2
:100030003D1C000800000000F52F0008C13000083A
:100040004F0200084F0200084F0200084F0200084C
:100050004F0200084F0200084F0200084F0200083C
:100060004F0200084F0200084F0200084F0200082C
:100070004F0200084F0200084F0200084F0200081C
:100080004F0200084F0200084F0200084F0200080C
:100090004F0200084F0200084F0200084F020008FC
:1000A0004F0200084F0200084F0200084F020008EC
:1000B0004F0200084F0200084F0200084F020008DC
:1000C0004F0200084F0200084F0200084F020008CC
:1000D0004F0200084F0200084F0200084F020008BC
:1000E0004F0200084F0200084F02000800F002F81B
:1000F00000F090F80AA090E8000C82448344AAF132
:100100000107DA4501D100F085F8AFF2090EBAE82F
:100110000F0013F0010F18BFFB1A43F0010318473B
:10012000EC3400000C350000103A24BF78C878C1C8
:10013000FAD8520724BF30C830C144BF04680C60ED
:10014000704700000023002400250026103A28BF35
:1001500078C1FBD8520728BF30C148BF0B60704739
:100160006E2900F06981702900F0B382662903F0DE
:10017000A581652903F0A281672903F09F81612988
:1001800003F09E8103681B0A28BF41F080016929A2
:1001900000F01681642900F01381752900F01081A8
:1001A0006F2900F04082782900F07F82E92900F071
:1001B000DB81E42900F0D881F52900F0D581EF2911
:1001C00000F03D82F82900F07E820368DB0928BF39
:1001D00041F08001632900F08187732900F0868750
:1001E000E32900F09187F32900F0968700207047FB
:1001F0001FB500F0E3FF04000020002103F048F9E0
:10020000401C60600020002103F02CF9E0601FBD5D
:1002100010B510BD00F0A4FF1146FFF7E9FF03F091
:100220006BF801F081F803B4FFF7F2FF03BC01F0B3
:10023000C9F800000948804709480047FEE7FEE783
:10024000FEE7FEE7FEE7FEE7FEE7FEE7FEE7FEE786
:1002500004480549054A064B704700002331000851
:10026000ED000008200100202007002020030020CE
:10027000200300207CB51D4616460C00009001D0DE
:100280002044401E074B7B442A4669460190304675
:1002900000F0EBF805461CB10020694600F0F8F8C4
:1002A00028467CBD110200004FF0000200B5134645
:1002B00094469646203922BFA0E80C50A0E80C5086
:1002C000B1F12001BFF4F7AF090728BFA0E80C5037
:1002D00048BF0CC05DF804EB890028BF40F8042B30
:1002E00008BF704748BF20F8022B11F0804F18BF9D
:1002F00000F8012B704770477047704770B504468F
:1003000085690068C10601D5302600E02026C007B7
:1003100007D070BDD4E9012130469047206A401CC7
:1003200020626D1EF6D570BD70B5044685690078F3
:10033000C00707D170BDD4E9012120209047206A71
:10034000401C20626D1EF6D570BD09684A0501D5B6
:1003500040B27047C905FCD500B2704709684A052C
:1003600001D5C0B27047C905FCD580B2704770B5E1
:100370000C460546012A05D02878800600D5EA6992
:10038000002302E0012305E05B1C934202D2E05C03
:100390000028F9D1A869E618C01AA861286A18448B
:1003A00028622846FFF7AAFF04E0D5E9012114F8E6
:1003B000010B9047B442F8D32846FFF7B5FF70BD54
:1003C0002DE9F0410646002410687529314616A52E
:1003D00010D0FFF7BAFF002802DA404213A507E069
:1003E00031688A0701D512A502E0490704D511A595
:1003F000012401E0FFF7B2FF00210A2206F12407E1
:1004000009E0B0FBF2FCB0FBF2F302FB1C00303061
:1004100078541846491C0028F3D123462A46304612
:10042000BDE8F04100F069BA000000002D000000B6
:100430002B0000002000000011680268006A5305CC
:1004400001D508700AE0D30501D5088006E013063F
:1004500003D5C217C1E9000200E00860012070471F
:1004600001694A1C02610878704700B58FB0CDE978
:1004700001310021059105497944CDE90310114668
:10048000684600F031F90FB000BD0000E5FFFFFF46
:100490000A6802F8010B0A607047D1E900239A420A
:1004A00002D2531C0B601070704700002DE9FF5FF3
:1004B00015468A460446DFF8AC80F8440027D8E9A0
:1004C00000103E46CDE9001010E03AF816106A46DA
:1004D00002A800F025FE411C07D02178890603D52B
:1004E000E269391891420DD80744761C20788006BD
:1004F00002D5E069B84205DDAE42E6DB3AF8160007
:100500000028E2D1A069C01BA0612046FFF7F6FEDB
:10051000D8E90010CDE90010002017E03AF81810D3
:100520006A4602A800F0FCFDB0F1FF3F81460BD007
:1005300000250DF1080B05E0D4E901211BF80500A9
:1005400090476D1C4D45F7D308F10100B04280463D
:10055000E4DB206A384420622046FFF7E5FEBDE870
:10056000FF9F0000523000002DE9F0418046D21D6F
:1005700022F007020025D2E90002F52915A614D0C1
:10058000011E72F1000106DA0023D0EB030063EBD9
:10059000020211A608E0D8F800108B0701D50FA6BB
:1005A00002E0490701D50EA601251146002408F1F5
:1005B000240704E000F05CF930323A55641C50EA3C
:1005C0000102F7D12B46324621464046BDE8F041B4
:1005D00000F093B9000000002D0000002B00000087
:1005E0002000000030B4002100F1240408E002F0F3
:1005F0000705D208303542EA4372DB086554491CCE
:1006000052EA0305F3D10468002310A2250707D599
:10061000A40600D421B1C46901230DA2641EC461E3
:1006200030BC00F06AB910B5044621461068FFF7E7
:1006300095FE02462046BDE810400023D2E7D21DB9
:1006400022F00701D1E90023CCE700000000000000
:1006500030000000F0B40D460188090502D5214C98
:100660007C4402E01F4C7C440E34002100F124063F
:1006700008E002F00F071209E75D42EA03721B0966
:100680007754491C52EA0307F3D10278002312077A
:1006900004D5702D06D009B1022311342246F0BCD6
:1006A00000F02BB901231034F8E770B504460D466D
:1006B00021461068FFF752FE024629462046BDE853
:1006C00070400023C6E7D21D22F00703D3E90023C0
:1006D000C0E70368126843F0200303600823C36186
:1006E0000023B7E7B42E00002DE9F05F89460446E9
:1006F0004FF0000ADFF874B1FB44C0F820A0204698
:10070000E1688847002874D0252806D0D4E9012163
:100710009047206A401C2062F1E700265F46204691
:10072000E16888472028054607DB312D05D2781976
:1007300010F8200C08B10643F1E7B00701D526F008
:100740000406C4F81CA00027C4F818A02A2D09D05C
:10075000284602F0C9FD38B304EB8708303DC8F8DD
:10076000185019E059F8041B204604EB87029161E8
:10077000E1688847012F054618D1E069002820DA92
:1007800026F020061DE0D8F8180000EB800005EBED
:1007900040003038C8F818002046E1688847054610
:1007A00002F0A2FD0028EED1012F0AD02E2D08D193
:1007B0002046E16888477F1C0546022F46F0200648
:1007C000C4DBA069002803DA404246F00106A061BC
:1007D000F00701D026F010066C2D0BD0682D09D043
:1007E0004C2D39D06A2D35D0742D35D07A2D33D09B
:1007F00016E038E0E1682F4620468847B8420546B3
:1008000009D16C2F26D04FF48060E1680643204662
:100810008847054604E06C2F1AD04FF480700643D9
:100820000DB3A5F14100192802D8203546F4006621
:100830004A462946204626604E46FFF791FC80B185
:1008400001280BD0F61D26F0070000F1080956E735
:100850004020E4E78020D8E70020D6E706F104092D
:100860004DE7284652E7206ABDE8F09F442E00007D
:1008700030B5B0F10A024FEA900E71F100034EEA72
:10088000817EB0EB0E0061EB91014FEA101E4EEA43
:10089000017E10EB0E0041EB11114FEA102E4EEAD3
:1008A000016E10EB0E0041EB11214FEA104E4EEAA3
:1008B000014E10EB0E0041EB1141401841F10001D7
:1008C0004FEAD00040EA41704FEAD10110EB8005B9
:1008D0004FEA810444EA907444EB01046D1944EB3F
:1008E0000404521BA3414FF0000348BF0A3200D555
:1008F00030BD401C41F1000130BD2DE9F0470D46EF
:1009000099469246044600F124080168880604D5F9
:10091000E06921F01001216000E00120A84201DD22
:10092000471B00E00027A1697A1902EB0900081AA9
:10093000A0612078C00602D42046FFF7DFFC002625
:1009400008E0D4E901211AF806009047206A401C0B
:10095000761C20624E45F4DB2078C0060AD520467E
:10096000FFF7CCFC06E0D4E9012130209047206A53
:10097000401C2062381EA7F10107F4DC07E0D4E92F
:10098000012118F805009047206A401C2062281EAB
:10099000A5F10105F3DC2046FFF7C6FC2078000630
:1009A00002D50220BDE8F0870120FBE770472DE962
:1009B000FF4F0C461E464FF0FF378BB0D2E90001C7
:1009C000DDF860800A908A46C1F30A5505B93D46B4
:1009D000002108464FF00000BAF1000F00F440007B
:1009E00005DA00EB80004FF4400101EA50004FEAC5
:1009F0009059B9F1010F00DDB9460A9850EA4A0052
:100A00000ED044F61050A5F2FF3545432F14B8F12F
:100A1000000F1ED07542291E1EDDC9F100021CE028
:100A2000B8F1010F4FF0000001D0302103E0F24394
:100A300005E02154401CB042FBDB3046002200217F
:100A400021540B99C1F80880C1E900200FB0BDE81E
:100A5000F08FBD1B6D1CDEE74A4600DA694206A82E
:100A600000F0F0FB06AB93E8070003AB83E8070058
:100A700050460A9900F0ADFC8DE80700A0F5005043
:100A80001F3800900398002D0ADD42F21F014A46EC
:100A90000844002303A90390684600F016FF09E00C
:100AA000A0F500504A461F38002303A9039068466A
:100AB00000F020FF8DE807000004000C03D04FF089
:100AC000FF30410800E01046B8F1000F03D00022CB
:100AD000009215461EE0751E05D4FFF7C9FE3032A0
:100AE00062556D1EF9D5B3460122084302D000229B
:100AF0007F1C04E02078302801D100227F1E002ACC
:100B0000099784D01DE0112D07DAFFF7B1FE3032CE
:100B100062556D1C50EA0102F5D1084302D00098DD
:100B2000C8B10EE00021681E05E0235C625C6354DE
:100B30002254401E491C8142F7DBAB46A81B401ED5
:100B40000990002004F80B000B98099AC0F808805F
:100B5000C0E9002B7AE711264FF0000857E72DE98E
:100B6000F04F88460446D21D22F0070191B0D1E92A
:100B70000001CDE90A0102F093FB02460B98C00F79
:100B800001D02D2007E02068810701D52B2002E04D
:100B9000202101EAC000032A099001D0072A05DBC1
:100BA00003464146204600F00DFB0BE1207880060D
:100BB00001D5E06900E00620B8F1650F814606D056
:100BC000B8F1660F18D0B8F1670F70D131E000208E
:100BD000B9F1110F009001DB112301E009F10103CC
:100BE0000AAA01A90CA8FFF7E2FEDDE90C700026B5
:100BF00009F10105834647E001204B4600904FF084
:100C000000470AAA01A90CA8FFF7D1FEDDE90DB043
:100C10000C995D46002610B909F101000D18B9EBD9
:100C2000050003D4C0F1FF3609F10105A5EB090069
:100C30002BE0B9F1010F01DA4FF001090020B9F101
:100C4000110F0090484601DD112300E003460AAA77
:100C500001A90CA8FFF7ABFEDDE90C704D4600269C
:100C60008346207800070AD4AB4500DA5D4601A828
:100C7000012D04DD411911F8011C302907D04F4521
:100C800002DA17F1040F04DA012082460FE06D1E2C
:100C9000EEE7002F02DCED1B3E4403E0781CA84287
:100CA00000DD7D1CB81B00F1010A4FF000472078E1
:100CB000000703D4AA4501DB4FF0FF3A0021B7F14A
:100CC000004F0DF143088DF8431024D002202B2350
:100CD000002F01DA7F422D230A21021EA0F101001C
:100CE00000DC5FB197FBF1FC97FBF1F201FB1C7C90
:100CF00017460CF1300C08F801CDEEE7A8F1010021
:100D000003702188090501D5452100E06521A0F186
:100D1000010800F8011C09980FA9A1EB0807FF1DA5
:100D200000B10120411901EBEA70A1693844081AA9
:100D3000401EA0612078C00602D42046FFF7DEFAEC
:100D4000099828B1D4E901219047206A401C20620B
:100D50002078C00622D52046FFF7D0FA1EE0002EEC
:100D600004DBB34502DD01A8805D00E03020D4E95A
:100D700001219047206A401C2062761CAAF10100E4
:100D80005FEA000A0AD100F019FAC0680168405C05
:100D9000D4E901219047206A401C2062281EA5F159
:100DA0000105DCDC07E0D4E9012118F8010B9047CC
:100DB000206A401C2062381EA7F10107F3DC2046A0
:100DC000FFF7B2FA032011B041E600002DE9F04F21
:100DD00004460D46D21D22F0070089B0D0E90097E5
:100DE0004846394602F05CFA0246F80F01D02D233E
:100DF00007E02068810701D52B2302E0202101EACA
:100E0000C0038DF820300BB1012000E00020032A40
:100E1000824601D0072A04DB2946204600F0D2F999
:100E20003FE12078800601D40D2500E0E569C7F395
:100E30000A560D2D49DA00214FEA175B08464FF09C
:100E40000000002F00F4400007DA00EB80004FF4B0
:100E5000400100EBD07001EA60008115012901DD3D
:100E60004FF0FF3100224FEA850CBCF1180F06D37A
:100E70001346ACF118004FF08052C24003E04FF42B
:100E8000801323FA0CF30CF10C0CBCF1200F04D3EB
:100E9000ACF1200C09FA0CF001E007FA0CF0002983
:100EA0004FF0004801DD18B90FE00ED140450CD3DA
:100EB00019EB02095F4121B9404502D19F4329EA5C
:100EC0000209BBEB175F00D0761C2088000502D515
:100ED0007B48784402E07A487844193808AA3023DD
:100EE00002F80A30037C0AF10101002E0AF1020A1D
:100EF00053546A4602DC4FF0300101E04FF03101FB
:100F00004FF001088DF8001002D0A6F2FF3603E082
:100F100059EA470100D06B4E002D02DC2178090709
:100F200004D54FF002082E218DF80110C44600218F
:100F30000BE0C7F303433F01C35C491C6D1E02F87D
:100F40000830052908F1010801DA002DF1DC002143
:100F50000CE000EB1973491C1B786D1E082902F880
:100F600008304FEA091908F1010801DA002DF0DC18
:100F700021688B0602D516E0A8F10108E04505DDE1
:100F800002EB080313F8013C302BF5D0B8F1000F49
:100F900009DD02EB080313F8013C2E2B03D10907EE
:100FA00001D4A8F10108002D05DD3E2102F808104A
:100FB0006D1E08F10108407C002E02F8080008F1BF
:100FC000010804DA2D20764202F8080002E02B2006
:100FD00002F808000A214FF47A70864208F10108ED
:100FE0000BDB96FBF0F3303302F8083096FBF0F39E
:100FF00008F1010800FB136601E0642E0CDB64209D
:1010000096FBF0F3303302F8083096FBF0F308F16A
:10101000010800FB136601E00A2E06DB96FBF1F0E7
:10102000303002F8080008F1010896FBF1F001FBEE
:101030001060303002F80800A16908F1010808EBDF
:10104000050202EB0A00081AA0612078C00602D44B
:101050002046FFF753F9216A08AE01EB0A0020622F
:1010600004E0D4E9012116F8010B9047BAF1010A16
:10107000F7D22078C00602D52046FFF73FF96E462A
:1010800009E016F8010B3E280FD0D4E90121904762
:10109000206A401C2062B8F10108F2D22046FFF716
:1010A00043F909B00320BDE8F08F206A284420628C
:1010B00003E0D4E90121302090476D1EEBD3F8E71F
:1010C0008E26000002FCFFFF10B5436913B1AFF399
:1010D000008001E0FFF74BF9012010BD127800F10C
:1010E00024010A7000224A700122EDE711684FF0D6
:1010F000FF32E9E710B5436913B1AFF3008001E0B7
:10110000FFF7D4F9012010BD128800F12401828478
:101110000022C2840122EDE711684FF0FF32E9E7B7
:1011200070B516460C46054600F040F8036893F883
:101130000101012806D0FF2C0FD8185D68B10120ED
:101140002C7070BDD3F807013246214603F2071315
:1011500003442846BDE8704018474FF0FF3070BD8B
:10116000754600F0EBF8AE4605006946534620F0A0
:101170000700854618B020B5FFF76AF8BDE82040A3
:101180004FF000064FF000074FF000084FF0000B43
:1011900021F00701AC46ACE8C009ACE8C009ACE8F6
:1011A000C009ACE8C0098D467047000010B500F0DA
:1011B00005F8001D10BD00BFD9220000004870478F
:1011C000DC0000202DE9F0411F460446032601689B
:1011D000072A01F4006004DB08B116A505E016A596
:1011E00003E008B115A500E015A521F0100020606E
:1011F000A069C01EA0610FB1401EA0612046FFF78C
:101200007DF84FB1D4E9012138469047206A401C4F
:101210002062C01C206206E0206AFAE7D4E90121BE
:1012200015F8010B9047761EF8D22046FFF77CF8A0
:10123000BDE8F0814E414E006E616E00494E4600A1
:10124000696E66002DE9F047814616468AB035483A
:1012500078440DC88DE80D0032487844801C03ACFA
:101260000DC884E80D0041F69B300844372190FBFF
:10127000F1F290FBF1F5A5F1800501FB12041B3C96
:1012800002D56442012000E00020DFF898A08046EB
:101290000027FA44AAF1BE0A0EE0E0070AD032465F
:1012A000684607EB470101230AEB810100F022FBAE
:1012B0008DE8070064107F1C002CEED1194F7F448D
:1012C000AE3F19E0E80715D007EB04100DF1180A3E
:1012D00090E80E008AE80E00C068F04201D198192B
:1012E00008903246012306A903A800F003FB03ABD4
:1012F00083E807006D10641C002DE3D14FF001035B
:1013000032466946B8F1000F03A802D000F0DDFABA
:1013100001E000F0EFFAC9E90001C9F808200AB0BD
:10132000BDE8F087A023000010B50446AFF30080AD
:101330002046BDE81040FEF776BF00000048704729
:10134000BC0000204FF0013C50F8042B51F8043B46
:101350009A4221D1A2EB0C03934313EACC1317D189
:1013600050F8042B51F8043B9A4215D1A2EB0C0320
:10137000934313EACC130BD150F8042B51F8043BE0
:101380009A4209D1A2EB0C03934313EACC13DBD0AE
:101390004FF00000704700BFD01A01BAB1FA81F1D6
:1013A00001F0180122FA01F0CB40C1F12001DBB2BB
:1013B000C0B2C01A2CFA01F3D11A914311EAC31139
:1013C000E6D1704701491820ABBEFEE726000200B7
:1013D00070475FEA400C08BF91F0000F4FEA8C2382
:1013E0004FEAC12243EA51514FEA1C5018BF00F5A1
:1013F000F0404FEA300018BF41F000415FEA6C5CFA
:1014000000F02980BCF1FF3F08BF40F080407047EA
:10141000130C06BF12044FF0100C4FF0000C130E0B
:1014200004BF12020CF1080C130F04BF12010CF1DF
:10143000040C930F04BF92000CF1020CD30F04BFF5
:1014400052000CF1010C11464FF00002A0F11F00F8
:10145000A0EB0C00704711F0004F08BF704731F04F
:1014600000413FF4D5AF0B0C06BF09044FF0100C40
:101470004FF0000C0B0E04BF09020CF1080C0B0F0F
:1014800004BF09010CF1040C8B0F04BF89000CF19F
:10149000020CCB0F04BF49000CF1010CCCF120036E
:1014A000A0EB0C0022FA03F302FA0CF241EA03016A
:1014B00000F10100704720F07F4C80EA030023F028
:1014C0007F47ACEB070303F57C5300F0004003F1CA
:1014D000FF032DE980494FEA154B09B44FEA144345
:1014E00025EA0B4E24EA03480FF2042606EB1327E5
:1014F00049083E785FEA320203FB0667C7F500073A
:1015000007FB06F64FEA54374FEAD64606F10206C5
:1015100007FB066CCCF1005C4FEA1C472CEA074C39
:1015200007FB06F40CFB06F504EB15464FEA96168E
:1015300034BF00204FF000404FEAD13706FB07FCD4
:101540004FEA1C4C0CFB0BF7D21B03FB0CF761EBB7
:1015500007010CFB0EF7B0EB074072EB17420CFBD8
:1015600008F734BFA2EB0742B2EB074261EB174129
:101570004FEA0C444FEA910706FB07FC4FEA1C4C6C
:101580000CFB0BF7B0EBC74072EB573203FB0CF7C9
:1015900034BFA2EBC742B2EBC74261EB57310CFB41
:1015A0000EF7B0EBC70072EB57720CFB08F734BFB5
:1015B000A2EBC702B2EBC70261EB5771039F4FEA80
:1015C000816141EA921104EBCC044FEAD1374FEA32
:1015D000826206FB07FC42EA90124FEA80604FEA03
:1015E0001C4C0CFB0BF7D21B03FB0CF761EB070148
:1015F0000CFB0EF7B0EB074072EB17420CFB08F741
:1016000034BFA2EB0742B2EB074261EB17414FEA4E
:101610008C554FEA910704EB9C2406FB07FC4FEA2C
:101620001C4C0CFB0BF7B0EBC74072EB573203FBC3
:101630000CF734BFA2EBC742B2EBC74261EB5731A4
:101640000CFB0EF7B0EBC70072EB57720CFB08F700
:1016500034BFA2EBC702B2EBC70261EB577115EBC7
:101660004C254FEA816141EA92114FEA82624FEACA
:10167000D13742EA901206FB07FC44F100044FEA1E
:1016800080604FEA1C4C0CFB0BF7D21B03FB0CF7E2
:1016900061EB07010CFB0EF7B0EB074072EB174252
:1016A0000CFB08F734BFA2EB0742B2EB074261EB39
:1016B000174115EB1C154FEA813141EA92414FEA7F
:1016C000823242EA90424FEA80304FEA0C7644F18F
:1016D000000448EA03434EEA0B484FF0000EB2EB19
:1016E000080C71EB030724BF624639464EEB0E0E21
:1016F0004FF0000B0018524149414BEB0B0BB2EB82
:10170000080C71EB03077BF1000B24BF62463946DE
:101710004EEB0E0E4FF0000B0018524149414BEBBF
:101720000B0BB2EB080C71EB03077BF1000B24BF32
:10173000624639464EEB0E0E51EA020718BF46F0DC
:10174000010616EB0E7655F1000254F1000103D5A7
:10175000BDE88901BDE80088BDE88901BDE8004811
:10176000B619524141EB0101A3F10103704780809A
:101770007F7E7D7C7B7A79787776767574737271EB
:1017800071706F6E6E6D6C6C6B6A6A6968686766A3
:1017900066656464636362616160605F5F5E5E5D35
:1017A0005D5C5C5B5B5A5A595958585757565655A9
:1017B00055555454535352525251515050504F4F0B
:1017C0004F4E4E4D4D4D4C4C4C4B4B4B4A4A4A495B
:1017D000494948484847474747464646454545449E
:1017E0004444444343434342424242414141002B2B
:1017F0009C4630D477002BD01CB54FEA370703B492
:101800004FF010004FF01001BAF1000F06D0BCF1FC
:10181000000FDCBF40F0080040F008014FF000006E
:101820000FBCBDE810400BF1010BBBF1010F08BF6D
:101830005FEA170722BF12F1010211F101014FF017
:10184000004143F1000300F0004043EA000070470C
:10185000F9D35708D0E746EA064613F1400F4FEA9E
:1018600016461FDD13F1200FDFBF16430A46002185
:1018700020335B42BED0C3F1200746EA064602FA97
:1018800007F74FEA164646EA0706C3F1200722FA91
:1018900003F201FA07F721FA03F14FF0000342EADD
:1018A0000702A7E746EA020646EA06464FEA164658
:1018B00046EA0106BCBF46EA0646360C4FF0000376
:1018C0004FF000024FF0000194E72DE9804C9A465A
:1018D000934670B491E8380007C831EA400C48BF1D
:1018E00034EA430C03D5FFF7E6FDFFF780FFF0BCB9
:1018F000BDE8008C2DE9804C9A46934670B491E87F
:10190000380007C810F0804F08BF13F0804F03D194
:1019100000F005F8FFF76BFFF0BCBDE8008C20F08D
:101920007F4780EA030023F07F4C07EB0C03A3F50D
:101930007C5300F00040A3F1FE0392F0000F00F092
:10194000B38095F0000F00F077802DE901494FEA50
:1019500011404FEA144621EA004800FB06FC24EA45
:10196000064708FB06F607FB08F800FB07F718EB2D
:1019700006484CEB164C4FEA124B18EB07484FEA5F
:1019800015464CEB174022EA0B4E0BFB06FC25EAF2
:1019900006470EFB06F607FB0EFE0BFB07F71EEBDA
:1019A000064E4CEB164C4FF000061EEB074E4CEB70
:1019B000174B18EB0B0840F1000018EB0E0B58EB1F
:1019C000000840F100008F1A4FF000013CBFC943EE
:1019D000661B14BFB5EB040C00213CBFC943F61BCA
:1019E0004FEA17444EEA8E0E27EA04454FEA1C4799
:1019F00004FB07622CEA074C05FB07F70CFB05F616
:101A000004FB0CFC16EB074642EB174216EB0C46A8
:101A100042EB1C421BEB060658EB0202414146EA30
:101A20009E0601D5BDE80189B619524141EB01017D
:101A3000A3F10103BDE801894FEA14454FEA1147BC
:101A400024EA054621EA074C05FB07F406FB07F7E5
:101A50000CFB06F105FB0CFC11EB074144EB1744B2
:101A60004FEA124711EB0C4144EB1C4422EA074CAD
:101A700005FB07F206FB07F70CFB06F605FB0CFC63
:101A800016EB074642EB174216EB0C4642EB1C45A1
:101A90006A1854F1000148BF7047B619524141EB32
:101AA0000101A3F10103704795F0000F37D04FEA11
:101AB00011424FEA144721EA024624EA074C02FB8E
:101AC00007F106FB07F70CFB06F402FB0CFC14EB1A
:101AD000074441EB17414FEA154714EB0C4441EB27
:101AE0001C4125EA074C02FB07F506FB07F70CFB38
:101AF00006F602FB0CFC16EB074645EB174516EB0A
:101B00000C4645EB1C42121951F1000148BF7047C9
:101B1000B619524141EB0101A3F1010370474FEAAD
:101B200014454FEA114724EA054621EA074C05FB14
:101B300007F106FB07F70CFB06F24FF0000605FB6A
:101B40000CFC12EB074241EB174112EB0C4251EB3C
:101B50001C4148BF7047921841EB0101A3F10103FA
:101B6000704700F00F01000900EB800001EB40001E
:101B7000C0B27047FEE7000064230322D021014871
:101B800000F04CBA2000002010B586B00446642254
:101B9000072103A88DE8070001230022D021264851
:101BA00000F0F2FA002840D19DF80C0000F07F0010
:101BB000FFF7D7FFE0719DF80D0000F07F00FFF701
:101BC000D0FFA0719DF80E10480630D5C1F3001269
:101BD00001F00F0002EB820200EB4200890603D500
:101BE0000C2804D00C3002E00C2800D100206071D9
:101BF0009DF80F0000F00700FFF7B3FF20719DF87C
:101C0000100000F03F00FFF7ACFFE0709DF81100FE
:101C100000F01F00FFF7A5FFA0709DF81200FFF76E
:101C2000A0FF00F5FA602080002006B010BD01F092
:101C30003F00FFF796FFDAE7200000207047000022
:101C40000FB4802100B5A1B023AB6846229AFEF7FD
:101C500011FB002809DD802800D37F2082B24FF4D9
:101C60007A736946024800F05FFF21B05DF814FB0B
:101C70007400002072B6FEE770B5044600F004F967
:101C80000546601C02D004480078044400F0FCF8CB
:101C9000401BA042FAD370BD100000202DE9F84F80
:101CA000DFF8B8910024A9F1040B23460F2709F1AE
:101CB000040AABF1040EC9E00125A5402A40AA425E
:101CC0007DD1674ED1F804C0ACEB0608B44532D0E4
:101CD00014DCBCF1030F3AD009DCBCF1000F2AD0B0
:101CE000BCF1010F1CD0BCF1020F31D11DE0BCF1E1
:101CF000110F17D0BCF1120F2AD119E0B8F5881FC7
:101D000019D006DCB8F5803F15D0B8F5801F1FD17B
:101D100011E0B8F5001F0ED0B8F5041F18D10AE085
:101D2000CB6815E0CB681B1D12E0CB6808330FE0D1
:101D3000CB680C330CE08B682BB1012B4FF0080300
:101D400003D0456104E0042302E0056100E00023C4
:101D5000FF2A01D8064601E000F104064FEA840597
:101D600001D9A5F12005D6F8008007FA05FC28EA7C
:101D70000C0803FA05F548EA0508C6F800804D6826
:101D8000ED0062D5374DAE6946F00106AE61AD6932
:101D900024F0030605F001050095334D06EB050C14
:101DA000DCF80850A607360F07FA06F825EA0805FA
:101DB000DFF8B880404503D14FF0000817E044E059
:101DC000DFF8AC80404502D14FF001080FE0DFF8AA
:101DD000A480404502D14FF0020808E0DFF8988067
:101DE000404502D14FF0030801E04FF0040808FA23
:101DF00006F848EA0508CCF808804D68D9F8006074
:101E0000ED024D4601D5164300E096432E604D6825
:101E1000DAF80060AD02554601D5164300E096435E
:101E20002E604D68DBF80060AD035D4601D51643BA
:101E300000E096432E604D68DEF80060ED037546C5
:101E400001D5164300E096432E60641C0D682A46B7
:101E5000E5407FF431AFBDE8F88F00000804014091
:101E60000000111000100240000001400008014075
:101E7000000C014000100140001401400AB1016152
:101E800070470904FBE700000148806870470000C4
:101E90001000002070B5040025D094F83D00002506
:101EA00020B984F83C50204600F09CFA242084F8A5
:101EB0003D002068016821F001010160206801688F
:101EC00041F4004101602068016821F40041016093
:101ED00000F0D6FB4D4A6168914201D84C4900E0C0
:101EE0004C49884201D2012070BD4B492368B0FBA8
:101EF000F1F15E6826F03F060E435E606368934230
:101F000006D94FF4967359434FF47A73B1FBF3F14A
:101F10002368491C1E6A26F03F0631431962616836
:101F2000914210D84900401EB0FBF1F2521CC2F39E
:101F30000B02042A01D2042022E0B0FBF1F0401C85
:101F4000C0F30B001CE0A268F2B301EBC10303EB8A
:101F50000116431EB3FBF6F35B1C43F480431B05E1
:101F600049D092B301EBC10202EB0111401EB0FB5C
:101F7000F1F0401CC0F30B0040F4804040F40040FE
:101F80002168CA694CF6FF739A431043C861D4E9CB
:101F9000071001432068026822F0C002114301606B
:101FA000D4E9030101432068826848F2FF339A4371
:101FB00011438160D4E9050108432168CA6822F011
:101FC000FF021043C86001E00EE016E020680168DF
:101FD00041F0010101602564202084F83D00256363
:101FE00084F83E50002070BD01EB4106431EB3FB58
:101FF000F6F35B1CB3E70120C2E701EB4101401E91
:10200000B0FBF1F0401CC0F30B00B7E7A086010065
:1020100080841E0000093D0040420F002DE9FF4F63
:1020200081B089460446FFF72FFF054694F83D002E
:102030004FF0000820287DD1192301225049204665
:10204000009500F057FE002874D194F83C00012858
:1020500070D0012084F83C0020680168C90703D1D2
:10206000016841F0010101602068016821F400610C
:102070000160242084F83D00002626644148E06287
:102080004FF0011B20272068016841F48071016036
:102090000095002259462046049B00F02BFE50B1CB
:1020A00020680068C00502D54FF40070206403204A
:1020B00005B0BDE8F08F216809F0FE000861FFF768
:1020C000E3FE2168054648694969C0F34000C1F351
:1020D00080214FF0A00A0FE0FFF7D6FE411B0498C5
:1020E000814200D808B984F83DA02168486949694F
:1020F000C0F34000C1F3802194F83D20A02A02D013
:1021000008B90029E8D084F83D7020684169C943C6
:10211000890716D4016841F40071016020684169A3
:1021200080691923012216492046009500F0E2FD3E
:10213000B8B900E021E084F83D7084F83C600020EC
:10214000B6E7016841F40071016021686FF48060B6
:102150004861192301220A492046009500F0CAFD72
:1021600008B10120A4E7039808F1010880458AD34B
:1021700084F83D7084F83C60F3E7022098E70000A3
:10218000020010000000FFFF2DE9FF4F83B0002583
:10219000DDE910799A4693460446DDF848800095BB
:1021A000FFF772FE064694F83D0020287CD11923E3
:1021B000012288492046009600F09CFD0028F5D1B8
:1021C00094F83C0001286FD0012084F83C0020687E
:1021D0000168C90703D1016841F00101016020686D
:1021E000016821F400610160222084F83D00402054
:1021F00084F83E0025646762A4F82A90608D2085EB
:102200007548E062CDE9008653465A462046049957
:1022100000F0F2FC00287CD1208DDFF8C09120274F
:1022200068B1012814D00228206801681ED041F44A
:10223000806101602068416980690090BCE020688D
:10224000416981690091016841F400710160B3E066
:102250002068016821F48061016072B620684169DC
:1022600081690091016841F400710AE041F4006164
:10227000016072B62068416981690091016821F4AA
:102280008061016062B697E0032865D801280CD010
:10229000022843464FF000024946204600960BD0E4
:1022A00000F028FDA8BB0CE091E0324641462046F4
:1022B00000F0C6FD68BB72E000F01CFD48BB72B6C2
:1022C00033E02068016821F48061016072B6206803
:1022D0000069616A0870606A401C6062208D401E5F
:1022E0002085608D401E60853D4846F2A81100683B
:1022F000B0FBF1F0C0EBC00000EB80000090401E8E
:10230000009007D020684069C04340070DD5009871
:10231000F5E727E044F8305F6773A573206940F064
:102320002000206162B625731CE02068016841F43A
:102330000071016020680069616A0870606A401C71
:102340006062218D491E2185618D491E618562B6BD
:1023500021680969017026E032464146204600F0B6
:102360006FFD18B1012007B0BDE8F08F206800694B
:10237000616A0870606A401C6062208D401E81B2F4
:102380002185608D401E608520684269D2435207D6
:1023900012D4032903D1016821F48061016020680F
:1023A0000069616A0870606A401C6062208D401E8E
:1023B0002085608D401E6085208D00287FF464AFED
:1023C00084F83D7084F83E5084F83C50CBE70220FE
:1023D000C9E70000020010000000FFFF0400010038
:1023E0001C00002010B586B00021009101910291DF
:1023F000039100680F4988421AD10F4CA06940F040
:102400000800A061A069694600F008000490C0209F
:10241000009012200190032003900848FFF73EFC33
:10242000E06940F40010E061E06900F400100490FD
:1024300006B010BD0054004000100240000C0140E6
:1024400002488168027811448160704710000020C2
:10245000074810B5016841F010010160032000F049
:1024600067F80F2000F006F800F024F8002010BDF7
:102470000020024070B50D4D04464FF47A71287863
:10248000B1FBF0F00A490968B1FBF0F000F0CEFAB8
:1024900048B9102C07D200222146501E00F028F81F
:1024A00000206C6070BD012070BD00001000002095
:1024B0001C0000200C4808B5816941F001018161D0
:1024C000816901F001010091C16941F08051C16150
:1024D000C06900F0805000900448416821F0E0613C
:1024E00041F00071416008BD001002400000014051
:1024F000F0B40E4B1B680C46C3F30223C3F107056F
:10250000042D00D90425191D072901D2002300E05C
:10251000DB1E012606FA05F1491E214099409E4026
:10252000761E16403143F0BC00F0CEBE0CED00E04C
:10253000064900F0070208684FF6FF03184040EA1A
:102540000220034A10430860704700000CED00E0D1
:102550000000FA052DE9F0470F46050061D0434E13
:10256000306800F00700B84209D2306820F0070058
:1025700038433060306800F00700B84251D1286815
:102580003B4C810712D5400703D5606840F4E060FA
:1025900060602878000703D5606840F46050606090
:1025A0006068A96820F0F000084360602878C007E0
:1025B00028D06868012810D02168022810D0890727
:1025C00000292EDA616821F0030101436160FFF701
:1025D0005BFC804641F288390DE021688903EFE712
:1025E0008901EDE7FFF750FCA0EB0801494502D94E
:1025F0000320BDE8F0876068696800F00C00B0EB6C
:10260000810FEFD1306800F00700B8420BD9306875
:1026100020F0070038433060306800F00700B8420F
:1026200001D00120E5E72878400705D56068E96812
:1026300020F4E060084360602878000706D56068F1
:10264000296920F4605040EAC100606000F038F869
:102650006168084AC1F30311515CC840064908602B
:1026600006480068FFF706FF0020C2E7002002408E
:1026700000100240F63400081C0000201400002066
:102680000448054900684968044AC1F30221515CC5
:10269000C84070471C0000200010024006350008AA
:1026A0000448054900684968044AC1F3C221515CE5
:1026B000C84070471C00002000100240063500088A
:1026C0000E4A51680E4801F00C03042B11D0082B60
:1026D0000FD10C48C1F38343C903C05C0AD55168CC
:1026E000084AC1F34041921E515C054A5043B0FB79
:1026F000F1F0704704494843704700000010024061
:1027000000127A00E634000800093D002DE9F84F78
:10271000040070D02078C04DC00749D06868C0F36D
:102720008100012807D06868C0F38100022809D120
:102730006868C00306D52868800339D5606800281A
:10274000E7D035E06068B0F5803F0BD010B1B0F550
:10275000A02F11D0286820F480302860286820F449
:10276000802002E0286840F480302860606890B1E2
:10277000FFF78AFB06460AE0286840F480202860BC
:10278000F0E700BFFFF780FB801B642873D8286840
:102790008003F7D50CE0FFF777FB064605E000BFA6
:1027A000FFF772FB801B6428F0D828688003F7D4F9
:1027B00020789A4E80074FF001094FF0000839D574
:1027C000686810F00C0F07D06868C0F38100022819
:1027D00009D16868C00306D42868800714D5206929
:1027E000012808D110E02069B0B1C6F80090FFF7C9
:1027F0004BFB074605E00AE1FFF746FBC01B02283A
:10280000C4D828688007F7D52868616920F0F800E7
:1028100040EAC10028600DE0C6F80080FFF734FBF5
:10282000074604E0FFF730FBC01B022823D82868C6
:102830008007F7D4207800072CD57948A169D9B151
:10284000C0F80090FFF720FB074604E0FFF71CFBF1
:10285000C01B02280FD8686A8007F7D571484FF46B
:10286000FA510068B0FBF1F0009000BF0098411EE3
:102870000091FAD20EE080E0C0F80080FFF704FB80
:10288000074604E0FFF700FBC01B022875D8686A02
:102890008007F7D42078400760D5E8690027C0009A
:1028A00008D4E86940F08050E861E869012700F049
:1028B000805000905C480168C90513D401688346C4
:1028C00041F480710160FFF7DFFA824606E000BF45
:1028D000FFF7DAFAA0EB0A0064284ED8DBF8000014
:1028E000C005F5D5E06801280AD008B1052813D045
:1028F000286A20F001002862286A20F0040002E023
:10290000286A40F001002862E06841F2883B98B1F3
:10291000FFF7BAFA82460BE0286A40F0040028620A
:10292000EEE700BFFFF7B0FAA0EB0A0159455AD80D
:10293000286A8007F6D50CE0FFF7A6FA824605E084
:10294000FFF7A2FAA0EB0A0159454CD8286A800784
:10295000F6D41FB1E86920F08050E861E06988B3DF
:102960006968C1F38101022944D00228C6F8608059
:1029700004D0FFF789FA044638E034E0FFF784FA20
:10298000074604E0FFF780FAC01B02282BD828680E
:102990008001F7D4206AB0F5803F05D16868A1684E
:1029A00020F4003008436860D4E9080108436968EE
:1029B00021F4741108436860C6F86090FFF764FA68
:1029C000044606E025E000BFFFF75EFA001B022880
:1029D00009D828688001F7D51BE000BFFFF754FA3B
:1029E000001B022802D90320BDE8F88F2868800167
:1029F000F4D40EE00128F7D06868226A00F4803130
:102A0000914204D1616A00F47010884201D0012023
:102A1000EAE70020E8E70000001002400000424220
:102A2000800442421C0000200070004010B5401E8F
:102A3000B0F1807F01D3012010BD4FF0E024606130
:102A40000F21601700F040FC0020A06107202061EA
:102A5000002010BD70B5040004D094F8410000259A
:102A600010B106E0012070BD84F84050204600F00F
:102A700023F8242084F841002068C16821F4005123
:102A8000C160204600F076FB2068016921F4904186
:102A900001612068416921F02A0141612068C16813
:102AA00041F40051C1606564202084F8410084F83D
:102AB00042006563002070BD30B585B000240094ED
:102AC00001940294039400681449884224D1144864
:102AD000816941F480418161816901F480410491FF
:102AE000816941F00401816180690E4D00F00400AC
:102AF00004904FF400700090022001900320039096
:102B000069462846FFF7CAF82815CDE9000469464A
:102B100028460294FFF7C2F805B030BD00380140E6
:102B200000100240000801402DE9F843044690F8E7
:102B30004100984616460D46202802D00220BDE8E6
:102B4000F88385B17EB100206064212084F84100C3
:102B5000FFF79AF9A6848146E684A0682027B0F59D
:102B6000805F02D003E00120E9E7206910B12E4622
:102B700000250EE000260CE08021204600F056FBE8
:102B8000A8B9C6B116F8010B21684860E08C401E58
:102B9000E084E08C4B464FF00002CDF80080002826
:102BA000EAD14FF04001204600F040FB40B184F8EC
:102BB00041700320C3E735F8020BC0F30800E3E7D8
:102BC00084F841700020BAE7FEE701684A69D24301
:102BD00052050FD46FF480624A61002140F8301F23
:102BE000202242738173026942F004020261017380
:102BF00001207047002070472DE9F84F0446006817
:102C000089460B9D01689846174641F48061016032
:102C10002068016841F48071016000954FF0011B4C
:102C20000022594620460A9B00F064F84FF4007ACF
:102C300040B120680068C00501D5C4F840A0032059
:102C4000BDE8F88F216809F0FE0008612B4628498D
:102C500020460A9A00F096F8F0BB20684169806926
:102C600000902A4620460A9900F022F940B1206CD3
:102C700004283AD12068016841F40071016034E011
:102C8000FEB2B8F1010F09D02168380A08612A465E
:102C900020460A9900F00CF90028E8D12068066166
:102CA0002A4620460A9900F003F90028DFD120685F
:102CB000016841F480710160009500225946204668
:102CC0000A9B00F017F80028B3D1216809F0FF0033
:102CD00040F00100086100E007E02B46044920466F
:102CE0000A9A00F04FF80028AAD00120A8E70000B7
:102CF000020001002DE9F047984617460D460446AC
:102D0000C1F30746DDF820902AE000BFB8F1FF3F8D
:102D100026D0FFF7B9F8A0EB0901414502D8B8F178
:102D2000000F1DD12068012E16D0806925EA000011
:102D30000004000C12D00020B84211D1002044F849
:102D4000300F20216173A073216941F020012161BE
:102D500020730120BDE8F0874069E7E70120EBE739
:102D60002068012E0AD0806925EA00000004000CCA
:102D700006D00020B842C9D00020EBE74069F3E755
:102D80000120F7E72DE9F047984616460D46044620
:102D90004FF000094FF0200AC1F3074723E02068F5
:102DA0004069C043400515D42068016841F40071B2
:102DB000016021686FF480604861C4F8309084F845
:102DC0003DA084F83E90216C41F00401216484F818
:102DD0003C9021E0701C06D0FFF756F8A0EB0800ED
:102DE000B04203D816B1012F1FD021E02068012F77
:102DF00015D0806925EA00000004000C18D000BF3F
:102E000044F8309F84F80DA084F80E90216941F0B9
:102E10002001216184F80C900120BDE8F087406911
:102E200025EA00000004000CEAD12068406901E0B6
:102E30002068806925EA00000004000CAFD1ECE7AF
:102E40002DE9F041002590460E460446202728E053
:102E50004069C043C0060CD454F8301B6FF010001A
:102E6000486144F810596777A577206A2062257772
:102E700014E0FFF709F8A0EB0800B04200D886B9CB
:102E800020684069C04340060BD544F8305F677343
:102E9000A573206940F02000206125730120BDE862
:102EA000F08120684169C9434906D1D40020F6E782
:102EB00070B516460D4604461EE02046FFF785FE17
:102EC00008B1012070BD681C16D0FEF7DDFF801B25
:102ED000A84200D885B920684069C04300060BD5D8
:102EE000002044F8300F20216173A073216941F064
:102EF000200121612073E4E720684069C043000697
:102F0000DBD4002070BD000070B586B000241848E6
:102F10000094019402940394816941F0200181613D
:102F2000816901F020010491816941F0080181610A
:102F3000816901F008010491816941F00401816116
:102F400080690C4E00F0040040F603450490002216
:102F500029463046FEF792FF01200095CDE9010495
:102F60000220039069463046FEF798FE06B070BD19
:102F700000100240000C01400D4810B50B490160E3
:102F80000C49416000214FF480428160C0E9031286
:102F900041618161C1610162FEF77CFF002803D0BD
:102FA000BDE81040FEF766BE10BD000000540040B2
:102FB00020000020A08601000C4810B50A490160DD
:102FC0004FF4E1314160002181600C22C160C0E911
:102FD00004128161C161FFF73DFD002803D0BDE807
:102FE0001040FEF747BE10BD0038014074000020BD
:102FF000FEE7FEE77047704770B50E4605460024B1
:1030000008E000BF04F0070000F00CF83046FEF7BF
:1030100033FE641CAC42F5D3BDE8704000F036B816
:1030200000F034B870B5174D044615F8240008B107
:10303000012200E00022144E01213046FEF71EFF5F
:1030400005EB8404607808B1012200E0002202212F
:1030500035463046FEF712FFA07808B1012200E0A5
:1030600000224FF480612846FEF708FFE07808B19F
:10307000012200E000222846BDE870404FF40061C4
:10308000FEF7FCBEC4340008000C014010B50B4C28
:10309000002201212046FEF7F1FE002202212046F7
:1030A000FEF7ECFE002221152046FEF7E7FE002287
:1030B000E1142046BDE81040FEF7E0BE000C0140E0
:1030C000FFF7BEB930B58FB028216846FDF7ECF8A0
:1030D00014210AA8FDF7E8F801210804CDE9001041
:1030E0000024029402250491CDE907504FF4E0102A
:1030F00009906846FFF70AFB08B172B6FEE70F2099
:10310000CDE90A054FF48060CDE90C4002210AA800
:103110000E94FFF71FFA002801D072B6FEE70FB039
:1031200030BD704701680C3151E8002F22F49072D5
:1031300041E80023002BF5D10168143151E8002F3C
:1031400022F0010241E80023002BF5D1016B012997
:1031500009D101680C3151E8002F22F0100241E83A
:103160000023002BF5D1202180F8421000210163BB
:103170007047000070B5044600680169E26821F4F8
:103180004051114301612169A06808436169084306
:103190002168CA6841F20C639A430243CA602068FE
:1031A0004169A26921F44071114341611E492068BF
:1031B000884202D1FFF774FA01E0FFF761FA00EBF1
:1031C000C00101EB0012606864218000B2FBF0F3E3
:1031D000B3FBF1F36FF018067343B2FBF0F5B2FBEB
:1031E000F0F605EB8305322303EB0515B5FBF1F58E
:1031F000B6FBF1F605F0F00505EB0615B2FBF0F6AF
:10320000B2FBF0F0B0FBF1F06FF01802504306EBA8
:10321000800003EB0010B0FBF1F0216800F00F001C
:103220002844886070BD0000003801402DE9F84353
:10323000984617460D460446089E24E0701C22D08E
:10324000FEF722FEA0EB0800B0421AD8CEB12068EB
:10325000C168490717D5802D15D0402D13D00168BE
:10326000C94309070FD40168002540680090204633
:10327000FFF758FF0820606484F840500120BDE843
:10328000F8830320FBE72068006835EA000004D0DB
:103290000020B842D2D00020F1E70120F9E7FEE794
:1032A000490050EAC12018BF04204A0D18BF40F061
:1032B000010040F2FF72B2EB515F08BF40F0020024
:1032C000012808BF052070470907090E002804DB04
:1032D00000F1E02080F80014704700F00F0000F1CA
:1032E000E02080F8141D704730380A2801D20120F0
:1032F00070470020704700000EB5FFF7A9F8FFF7F0
:10330000E1FEFFF701FEFFF737FEFFF755FEFFF77F
:1033100087FEC820FEF7B0FCFEF72EFC10B328A0F5
:10332000FEF78EFC2BA0FEF78BFCFFF779FEC82082
:10333000FEF7A2FC2B4DA5F108042A48FEF724FC59
:1033400090B1FEF7A1FD6168401AB0F57A7F05D310
:10335000FEF79AFD606024A0FEF772FC6420FEF781
:103360008BFCEAE725A0DBE7E879617888420BD09F
:103370006070A9796A790092CDE90110EB78AA789A
:10338000298821A0FEF75CFC6979062903D1AA7976
:103390000AB9EB7913B100202070DFE7207800280C
:1033A000DCD10120207020A0FEF74AFC26A0FEF709
:1033B00047FC022143F69820FFF71EFE26A0CBE72C
:1033C000445333323331204E4F5420464F554E44F0
:1033D0000D0A000050524F4752414D205354415264
:1033E000540D0A0008000020525443205245414425
:1033F000204552524F520D0A000000004453333210
:103400003331204F4B0D0A00253034752D253032D5
:10341000752D2530327520253032753A25303275BC
:103420003A253032750D0A00464545443120545244
:10343000494747455220253032753A253032753A92
:10344000253032750D0A000046454544205354414D
:1034500052540D0A000000004645454420454E44A4
:103460000D0A000010B500290AD00878002807D0FE
:1034700005487844FDF766FF002801D0002010BD04
:103480000248784410BD0000BA010000B2010000FB
:1034900010B500290AD00878002807D005487844DC
:1034A000FDF750FF002801D0002010BD02487844ED
:1034B00010BD0000AA010000A2010000FDF74FBBF3
:1034C000FDF784BC010000000101000000010000C4
:1034D00000010100000001000000010100000001E6
:1034E00001000001010202030405060708090A0B96
:1034F0000C0D0E0F10100000000000000000010273
:10350000030406070809000000000102030400008C
:10351000000000000000000030313233343536370F
:103520003839414243444546403058003031323307
:103530003435363738396162636465664030780007
:10354000040000080000000000000002000100006C
:10355000103031323334353637383961626364655F
:10356000667870003031323334353637383941427D
:10357000434445465850000002400000000000A0AF
:103580000000000005400000000000C8000000002E
:103590000C4000000000409C0000000019400000AA
:1035A0000020BCBE0000000034400000BFC91B8EDC
:1035B00000000004B5400000504BCFD06607E2CFBA
:1035C000010000006C4100003E8251AADFEEA734EA
:1035D00001000000D9420000DCB5A0E23A301F979C
:1035E000FFFFFFFFB4450000FD25A0C8E9A3C14FC0
:1035F000FFFFFFFFFF3F0000000000800000000011
:10360000FF3F000000000080000000005837000865
:103610000000002020000000280100087837000882
:103620002000002000070000440100081C000000EA
:1036300043000000F8FFFFFF0C0000000E00000038
:103640000F0000002E0000001001000043000000E9
:10365000F8FFFFFF004040404040404040404141B3
:103660004141414040404040404040404040404057
:1036700040404040400502020202020202020202F1
:1036800002020202022020202020202020202002EE
:10369000020202020202909090909090101010107E
:1036A000101010101010101010101010101010101A
:1036B00002020202020288888888888808080808AE
:1036C000080808080808080808080808080808087A
:1036D00002020202400000000000000000000000A2
:1036E00000000000000000000000000000000000DA
:1036F00000000000000000000000000000000000CA
:1037000000000000000000000000000000000000B9
:1037100000000000000000000000000000000000A9
:103720000000000000000000000000000000000099
:103730000000000000000000000000000000000089
:103740000000000000000000000000000000000079
:10375000000000000000000000FF0000000000006A
:103760000000000000000000010000001000000048
:083770000000000000127A00C5
:04000005080000ED02
:00000001FF
